{
  "contractName": "TenderContract",
  "abi": [
    {
      "inputs": [],
      "stateMutability": "nonpayable",
      "type": "constructor"
    },
    {
      "inputs": [],
      "name": "admin",
      "outputs": [
        {
          "internalType": "address",
          "name": "",
          "type": "address"
        }
      ],
      "stateMutability": "view",
      "type": "function",
      "constant": true
    },
    {
      "inputs": [
        {
          "internalType": "string",
          "name": "_name",
          "type": "string"
        },
        {
          "internalType": "string",
          "name": "_contactNumber",
          "type": "string"
        },
        {
          "internalType": "string",
          "name": "_email",
          "type": "string"
        },
        {
          "internalType": "string",
          "name": "_password",
          "type": "string"
        },
        {
          "internalType": "address",
          "name": "_partyAddress",
          "type": "address"
        }
      ],
      "name": "createParty",
      "outputs": [],
      "stateMutability": "nonpayable",
      "type": "function"
    },
    {
      "inputs": [
        {
          "internalType": "address",
          "name": "_partyAddress",
          "type": "address"
        }
      ],
      "name": "deleteParty",
      "outputs": [],
      "stateMutability": "nonpayable",
      "type": "function"
    },
    {
      "inputs": [
        {
          "internalType": "address",
          "name": "_partyAddress",
          "type": "address"
        }
      ],
      "name": "getPartyDetails",
      "outputs": [
        {
          "internalType": "string",
          "name": "",
          "type": "string"
        },
        {
          "internalType": "string",
          "name": "",
          "type": "string"
        },
        {
          "internalType": "string",
          "name": "",
          "type": "string"
        },
        {
          "internalType": "address",
          "name": "",
          "type": "address"
        },
        {
          "internalType": "uint256",
          "name": "",
          "type": "uint256"
        },
        {
          "internalType": "string",
          "name": "",
          "type": "string"
        }
      ],
      "stateMutability": "view",
      "type": "function",
      "constant": true
    },
    {
      "inputs": [
        {
          "internalType": "address",
          "name": "_partyAddress",
          "type": "address"
        }
      ],
      "name": "getTrustScore",
      "outputs": [
        {
          "internalType": "uint256",
          "name": "",
          "type": "uint256"
        }
      ],
      "stateMutability": "view",
      "type": "function",
      "constant": true
    },
    {
      "inputs": [
        {
          "internalType": "address",
          "name": "",
          "type": "address"
        }
      ],
      "name": "parties",
      "outputs": [
        {
          "internalType": "string",
          "name": "name",
          "type": "string"
        },
        {
          "internalType": "string",
          "name": "contactNumber",
          "type": "string"
        },
        {
          "internalType": "string",
          "name": "email",
          "type": "string"
        },
        {
          "internalType": "string",
          "name": "password",
          "type": "string"
        },
        {
          "internalType": "uint256",
          "name": "trustScore",
          "type": "uint256"
        },
        {
          "internalType": "uint256",
          "name": "createdAt",
          "type": "uint256"
        },
        {
          "internalType": "address",
          "name": "partyAddress",
          "type": "address"
        },
        {
          "internalType": "uint256",
          "name": "freezedBalance",
          "type": "uint256"
        }
      ],
      "stateMutability": "view",
      "type": "function",
      "constant": true
    },
    {
      "inputs": [
        {
          "internalType": "uint256",
          "name": "",
          "type": "uint256"
        }
      ],
      "name": "partyAddresses",
      "outputs": [
        {
          "internalType": "address",
          "name": "",
          "type": "address"
        }
      ],
      "stateMutability": "view",
      "type": "function",
      "constant": true
    },
    {
      "inputs": [
        {
          "internalType": "address",
          "name": "_partyAddress",
          "type": "address"
        },
        {
          "internalType": "uint256",
          "name": "_trustScore",
          "type": "uint256"
        }
      ],
      "name": "setTrustScore",
      "outputs": [],
      "stateMutability": "nonpayable",
      "type": "function"
    },
    {
      "inputs": [
        {
          "internalType": "uint256",
          "name": "",
          "type": "uint256"
        }
      ],
      "name": "tenders",
      "outputs": [
        {
          "internalType": "string",
          "name": "title",
          "type": "string"
        },
        {
          "internalType": "string",
          "name": "description",
          "type": "string"
        },
        {
          "internalType": "uint256",
          "name": "budget",
          "type": "uint256"
        },
        {
          "internalType": "address",
          "name": "issuerAddress",
          "type": "address"
        },
        {
          "internalType": "enum TenderStatus",
          "name": "tenderStatus",
          "type": "uint8"
        },
        {
          "internalType": "uint256",
          "name": "createdAt",
          "type": "uint256"
        },
        {
          "internalType": "uint256",
          "name": "deadline",
          "type": "uint256"
        },
        {
          "internalType": "uint256",
          "name": "totalMilestones",
          "type": "uint256"
        },
        {
          "internalType": "uint256",
          "name": "tenderId",
          "type": "uint256"
        },
        {
          "internalType": "uint256",
          "name": "balance",
          "type": "uint256"
        }
      ],
      "stateMutability": "view",
      "type": "function",
      "constant": true
    },
    {
      "inputs": [],
      "name": "tokenRef",
      "outputs": [
        {
          "internalType": "contract Token",
          "name": "",
          "type": "address"
        }
      ],
      "stateMutability": "view",
      "type": "function",
      "constant": true
    },
    {
      "inputs": [
        {
          "internalType": "string",
          "name": "_name",
          "type": "string"
        },
        {
          "internalType": "string",
          "name": "_password",
          "type": "string"
        },
        {
          "internalType": "address",
          "name": "_partyAddress",
          "type": "address"
        }
      ],
      "name": "updateParty",
      "outputs": [],
      "stateMutability": "nonpayable",
      "type": "function"
    },
    {
      "inputs": [],
      "name": "getTenderCount",
      "outputs": [
        {
          "internalType": "uint256",
          "name": "",
          "type": "uint256"
        }
      ],
      "stateMutability": "view",
      "type": "function",
      "constant": true
    },
    {
      "inputs": [
        {
          "internalType": "uint256",
          "name": "_tenderId",
          "type": "uint256"
        }
      ],
      "name": "getValidators",
      "outputs": [
        {
          "internalType": "address[]",
          "name": "",
          "type": "address[]"
        }
      ],
      "stateMutability": "view",
      "type": "function",
      "constant": true
    },
    {
      "inputs": [
        {
          "internalType": "uint256",
          "name": "_tenderId",
          "type": "uint256"
        }
      ],
      "name": "getTotalProjectDays",
      "outputs": [
        {
          "internalType": "uint256",
          "name": "",
          "type": "uint256"
        }
      ],
      "stateMutability": "view",
      "type": "function",
      "constant": true
    },
    {
      "inputs": [
        {
          "internalType": "uint256",
          "name": "_tenderId",
          "type": "uint256"
        }
      ],
      "name": "getBudget",
      "outputs": [
        {
          "internalType": "uint256",
          "name": "",
          "type": "uint256"
        }
      ],
      "stateMutability": "view",
      "type": "function",
      "constant": true
    },
    {
      "inputs": [
        {
          "internalType": "uint256",
          "name": "_tenderId",
          "type": "uint256"
        }
      ],
      "name": "getTenderStatus",
      "outputs": [
        {
          "internalType": "enum TenderStatus",
          "name": "",
          "type": "uint8"
        }
      ],
      "stateMutability": "view",
      "type": "function",
      "constant": true
    },
    {
      "inputs": [
        {
          "internalType": "uint256",
          "name": "_tenderId",
          "type": "uint256"
        }
      ],
      "name": "getDeadline",
      "outputs": [
        {
          "internalType": "uint256",
          "name": "",
          "type": "uint256"
        }
      ],
      "stateMutability": "view",
      "type": "function",
      "constant": true
    },
    {
      "inputs": [
        {
          "internalType": "uint256",
          "name": "_tenderId",
          "type": "uint256"
        }
      ],
      "name": "getBidIds",
      "outputs": [
        {
          "internalType": "uint256[]",
          "name": "",
          "type": "uint256[]"
        }
      ],
      "stateMutability": "view",
      "type": "function",
      "constant": true
    },
    {
      "inputs": [
        {
          "internalType": "uint256",
          "name": "_tenderId",
          "type": "uint256"
        }
      ],
      "name": "getIssuerAddress",
      "outputs": [
        {
          "internalType": "address",
          "name": "",
          "type": "address"
        }
      ],
      "stateMutability": "view",
      "type": "function",
      "constant": true
    },
    {
      "inputs": [
        {
          "internalType": "uint256",
          "name": "_tenderId",
          "type": "uint256"
        }
      ],
      "name": "getTotalMilestones",
      "outputs": [
        {
          "internalType": "uint256",
          "name": "",
          "type": "uint256"
        }
      ],
      "stateMutability": "view",
      "type": "function",
      "constant": true
    },
    {
      "inputs": [
        {
          "internalType": "uint256",
          "name": "_tenderId",
          "type": "uint256"
        }
      ],
      "name": "getBidsCount",
      "outputs": [
        {
          "internalType": "uint256",
          "name": "",
          "type": "uint256"
        }
      ],
      "stateMutability": "view",
      "type": "function",
      "constant": true
    },
    {
      "inputs": [
        {
          "internalType": "uint256",
          "name": "_tenderId",
          "type": "uint256"
        },
        {
          "internalType": "uint256",
          "name": "bidId",
          "type": "uint256"
        }
      ],
      "name": "addBidId",
      "outputs": [],
      "stateMutability": "nonpayable",
      "type": "function"
    },
    {
      "inputs": [
        {
          "internalType": "uint256[]",
          "name": "_tenderBidIds",
          "type": "uint256[]"
        },
        {
          "internalType": "uint256",
          "name": "_tenderId",
          "type": "uint256"
        }
      ],
      "name": "setBidIds",
      "outputs": [],
      "stateMutability": "nonpayable",
      "type": "function"
    },
    {
      "inputs": [
        {
          "internalType": "address",
          "name": "_partyAddress",
          "type": "address"
        },
        {
          "internalType": "uint256",
          "name": "_budget",
          "type": "uint256"
        },
        {
          "internalType": "string",
          "name": "_title",
          "type": "string"
        },
        {
          "internalType": "string",
          "name": "_description",
          "type": "string"
        },
        {
          "internalType": "uint256",
          "name": "_deadline",
          "type": "uint256"
        },
        {
          "internalType": "uint256",
          "name": "_totalMilestones",
          "type": "uint256"
        }
      ],
      "name": "createTender",
      "outputs": [],
      "stateMutability": "nonpayable",
      "type": "function"
    },
    {
      "inputs": [],
      "name": "sortByTrustScore",
      "outputs": [
        {
          "internalType": "address[]",
          "name": "",
          "type": "address[]"
        }
      ],
      "stateMutability": "view",
      "type": "function",
      "constant": true
    },
    {
      "inputs": [
        {
          "internalType": "uint256",
          "name": "_tenderId",
          "type": "uint256"
        },
        {
          "internalType": "bool",
          "name": "_vote",
          "type": "bool"
        }
      ],
      "name": "validate",
      "outputs": [],
      "stateMutability": "nonpayable",
      "type": "function"
    },
    {
      "inputs": [
        {
          "internalType": "uint256",
          "name": "_tenderId",
          "type": "uint256"
        }
      ],
      "name": "checkTenderValidation",
      "outputs": [],
      "stateMutability": "nonpayable",
      "type": "function"
    },
    {
      "inputs": [
        {
          "internalType": "bool[]",
          "name": "_validationVotes",
          "type": "bool[]"
        }
      ],
      "name": "isValid",
      "outputs": [
        {
          "internalType": "bool",
          "name": "",
          "type": "bool"
        }
      ],
      "stateMutability": "pure",
      "type": "function",
      "constant": true
    },
    {
      "inputs": [
        {
          "internalType": "address",
          "name": "_partyAddress",
          "type": "address"
        }
      ],
      "name": "getTendersToValidate",
      "outputs": [
        {
          "internalType": "uint256[]",
          "name": "",
          "type": "uint256[]"
        }
      ],
      "stateMutability": "view",
      "type": "function",
      "constant": true
    },
    {
      "inputs": [],
      "name": "getAllActiveTenders",
      "outputs": [
        {
          "components": [
            {
              "internalType": "string",
              "name": "title",
              "type": "string"
            },
            {
              "internalType": "string",
              "name": "description",
              "type": "string"
            },
            {
              "internalType": "uint256",
              "name": "budget",
              "type": "uint256"
            },
            {
              "internalType": "address",
              "name": "issuerAddress",
              "type": "address"
            },
            {
              "internalType": "enum TenderStatus",
              "name": "tenderStatus",
              "type": "uint8"
            },
            {
              "internalType": "uint256",
              "name": "createdAt",
              "type": "uint256"
            },
            {
              "internalType": "uint256",
              "name": "deadline",
              "type": "uint256"
            },
            {
              "internalType": "uint256",
              "name": "totalMilestones",
              "type": "uint256"
            },
            {
              "internalType": "uint256",
              "name": "tenderId",
              "type": "uint256"
            },
            {
              "internalType": "address[]",
              "name": "validatorsAddresses",
              "type": "address[]"
            },
            {
              "internalType": "bool[]",
              "name": "validationVotes",
              "type": "bool[]"
            },
            {
              "internalType": "uint256[]",
              "name": "milestoneTimePeriods",
              "type": "uint256[]"
            },
            {
              "internalType": "uint256[]",
              "name": "bidIds",
              "type": "uint256[]"
            },
            {
              "internalType": "uint256",
              "name": "balance",
              "type": "uint256"
            }
          ],
          "internalType": "struct TenderContract.Tender[]",
          "name": "",
          "type": "tuple[]"
        },
        {
          "internalType": "uint256",
          "name": "",
          "type": "uint256"
        }
      ],
      "stateMutability": "view",
      "type": "function",
      "constant": true
    },
    {
      "inputs": [
        {
          "internalType": "address",
          "name": "_partyAddress",
          "type": "address"
        }
      ],
      "name": "getMyTenders",
      "outputs": [
        {
          "components": [
            {
              "internalType": "string",
              "name": "title",
              "type": "string"
            },
            {
              "internalType": "string",
              "name": "description",
              "type": "string"
            },
            {
              "internalType": "uint256",
              "name": "budget",
              "type": "uint256"
            },
            {
              "internalType": "address",
              "name": "issuerAddress",
              "type": "address"
            },
            {
              "internalType": "enum TenderStatus",
              "name": "tenderStatus",
              "type": "uint8"
            },
            {
              "internalType": "uint256",
              "name": "createdAt",
              "type": "uint256"
            },
            {
              "internalType": "uint256",
              "name": "deadline",
              "type": "uint256"
            },
            {
              "internalType": "uint256",
              "name": "totalMilestones",
              "type": "uint256"
            },
            {
              "internalType": "uint256",
              "name": "tenderId",
              "type": "uint256"
            },
            {
              "internalType": "address[]",
              "name": "validatorsAddresses",
              "type": "address[]"
            },
            {
              "internalType": "bool[]",
              "name": "validationVotes",
              "type": "bool[]"
            },
            {
              "internalType": "uint256[]",
              "name": "milestoneTimePeriods",
              "type": "uint256[]"
            },
            {
              "internalType": "uint256[]",
              "name": "bidIds",
              "type": "uint256[]"
            },
            {
              "internalType": "uint256",
              "name": "balance",
              "type": "uint256"
            }
          ],
          "internalType": "struct TenderContract.Tender[]",
          "name": "",
          "type": "tuple[]"
        }
      ],
      "stateMutability": "view",
      "type": "function",
      "constant": true
    },
    {
      "inputs": [
        {
          "internalType": "uint256",
          "name": "_tenderId",
          "type": "uint256"
        }
      ],
      "name": "getTenderDetails",
      "outputs": [
        {
          "components": [
            {
              "internalType": "string",
              "name": "title",
              "type": "string"
            },
            {
              "internalType": "string",
              "name": "description",
              "type": "string"
            },
            {
              "internalType": "uint256",
              "name": "budget",
              "type": "uint256"
            },
            {
              "internalType": "address",
              "name": "issuerAddress",
              "type": "address"
            },
            {
              "internalType": "enum TenderStatus",
              "name": "tenderStatus",
              "type": "uint8"
            },
            {
              "internalType": "uint256",
              "name": "createdAt",
              "type": "uint256"
            },
            {
              "internalType": "uint256",
              "name": "deadline",
              "type": "uint256"
            },
            {
              "internalType": "uint256",
              "name": "totalMilestones",
              "type": "uint256"
            },
            {
              "internalType": "uint256",
              "name": "tenderId",
              "type": "uint256"
            },
            {
              "internalType": "address[]",
              "name": "validatorsAddresses",
              "type": "address[]"
            },
            {
              "internalType": "bool[]",
              "name": "validationVotes",
              "type": "bool[]"
            },
            {
              "internalType": "uint256[]",
              "name": "milestoneTimePeriods",
              "type": "uint256[]"
            },
            {
              "internalType": "uint256[]",
              "name": "bidIds",
              "type": "uint256[]"
            },
            {
              "internalType": "uint256",
              "name": "balance",
              "type": "uint256"
            }
          ],
          "internalType": "struct TenderContract.Tender",
          "name": "",
          "type": "tuple"
        }
      ],
      "stateMutability": "view",
      "type": "function",
      "constant": true
    },
    {
      "inputs": [
        {
          "internalType": "uint256",
          "name": "_tenderId",
          "type": "uint256"
        },
        {
          "internalType": "enum TenderStatus",
          "name": "_tenderStatus",
          "type": "uint8"
        }
      ],
      "name": "updateTenderStatus",
      "outputs": [],
      "stateMutability": "nonpayable",
      "type": "function"
    },
    {
      "inputs": [
        {
          "internalType": "address",
          "name": "_partyAddress",
          "type": "address"
        },
        {
          "internalType": "uint256",
          "name": "_tenderId",
          "type": "uint256"
        },
        {
          "internalType": "uint256",
          "name": "_budget",
          "type": "uint256"
        },
        {
          "internalType": "string",
          "name": "_title",
          "type": "string"
        },
        {
          "internalType": "string",
          "name": "_description",
          "type": "string"
        },
        {
          "internalType": "uint256",
          "name": "_deadline",
          "type": "uint256"
        },
        {
          "internalType": "uint256",
          "name": "_totalMilestones",
          "type": "uint256"
        }
      ],
      "name": "updateTender",
      "outputs": [],
      "stateMutability": "nonpayable",
      "type": "function"
    },
    {
      "inputs": [
        {
          "internalType": "address",
          "name": "_partyAddress",
          "type": "address"
        },
        {
          "internalType": "uint256",
          "name": "_tenderId",
          "type": "uint256"
        }
      ],
      "name": "deleteTender",
      "outputs": [],
      "stateMutability": "nonpayable",
      "type": "function"
    }
  ],
  "bytecode": "0x60806040526032600455600060065534801561001a57600080fd5b50615c0a806200002b6000396000f3fe608060405234801561001057600080fd5b50600436106102105760003560e01c80635850b38311610125578063bac2e80d116100ad578063ef8c03911161007c578063ef8c0391146106cf578063f1d8ef4d146106eb578063f851a44014610707578063fd7b91b614610725578063feec47581461075557610210565b8063bac2e80d14610623578063c792d8fd1461063f578063ccfa858e1461066f578063e2e5384d1461069f57610210565b806382862275116100f45780638286227514610583578063897bb979146105b357806397ef4e3e146105cf578063aaaf4188146105eb578063b2a88f6f1461060757610210565b80635850b383146104e95780635e09eea1146105075780637a0c7d39146105375780637e4d2d971461055357610210565b80633d818b31116101a8578063471f40fb11610177578063471f40fb146104185780634f2352071461044857806353ee895d1461047f57806355e8dea2146104af578063564abc25146104cb57610210565b80633d818b31146103605780634008f9c01461037f57806342222a43146103af578063465e1def146103df57610210565b806329c350f1116101e457806329c350f1146102c65780632e4ea4c4146102e257806333bec83714610312578063354133f71461033057610210565b8062da72281461021557806314ac201b1461024a578063171fd8481461027a578063228becb614610296575b600080fd5b61022f600480360381019061022a919061410d565b610771565b604051610241969594939291906141fb565b60405180910390f35b610264600480360381019061025f91906142a4565b610caa565b60405161027191906142d1565b60405180910390f35b610294600480360381019061028f9190614421565b610d72565b005b6102b060048036038101906102ab919061410d565b61107b565b6040516102bd9190614a26565b60405180910390f35b6102e060048036038101906102db91906142a4565b61161e565b005b6102fc60048036038101906102f791906142a4565b6116ca565b60405161030991906142d1565b60405180910390f35b61031a6116ea565b6040516103279190614aa7565b60405180910390f35b61034a600480360381019061034591906142a4565b611710565b6040516103579190614ad1565b60405180910390f35b61036861173d565b604051610376929190614aec565b60405180910390f35b610399600480360381019061039491906142a4565b611c54565b6040516103a691906142d1565b60405180910390f35b6103c960048036038101906103c491906142a4565b611c77565b6040516103d69190614b8b565b60405180910390f35b6103f960048036038101906103f491906142a4565b611ce5565b60405161040f9a99989796959493929190614bad565b60405180910390f35b610432600480360381019061042d91906142a4565b611e76565b60405161043f9190614cc6565b60405180910390f35b610462600480360381019061045d919061410d565b611f1a565b604051610476989796959493929190614ce8565b60405180910390f35b610499600480360381019061049491906142a4565b6121a2565b6040516104a69190614ed3565b60405180910390f35b6104c960048036038101906104c49190614ef5565b6125d5565b005b6104d36129d4565b6040516104e09190614cc6565b60405180910390f35b6104f1612c44565b6040516104fe91906142d1565b60405180910390f35b610521600480360381019061051c919061410d565b612c4e565b60405161052e91906142d1565b60405180910390f35b610551600480360381019061054c9190614f35565b612c99565b005b61056d600480360381019061056891906142a4565b612e55565b60405161057a9190614fc0565b60405180910390f35b61059d600480360381019061059891906142a4565b612e95565b6040516105aa91906142d1565b60405180910390f35b6105cd60048036038101906105c891906150a3565b612eb5565b005b6105e960048036038101906105e4919061512b565b612f20565b005b61060560048036038101906106009190615190565b613079565b005b610621600480360381019061061c91906151d0565b6130c1565b005b61063d60048036038101906106389190615295565b613549565b005b610659600480360381019061065491906142a4565b61381b565b6040516106669190614fc0565b60405180910390f35b61068960048036038101906106849190615432565b61385a565b604051610696919061548a565b60405180910390f35b6106b960048036038101906106b491906142a4565b6138e0565b6040516106c691906142d1565b60405180910390f35b6106e960048036038101906106e4919061410d565b613900565b005b610705600480360381019061070091906154a5565b613cb0565b005b61070f613cf1565b60405161071c9190614fc0565b60405180910390f35b61073f600480360381019061073a919061410d565b613d17565b60405161074c9190614b8b565b60405180910390f35b61076f600480360381019061076a9190614ef5565b613e20565b005b60608060606000806060868073ffffffffffffffffffffffffffffffffffffffff163373ffffffffffffffffffffffffffffffffffffffff16146107ea576040517f08c379a00000000000000000000000000000000000000000000000000000000081526004016107e190615531565b60405180910390fd5b87600073ffffffffffffffffffffffffffffffffffffffff166000808373ffffffffffffffffffffffffffffffffffffffff1673ffffffffffffffffffffffffffffffffffffffff16815260200190815260200160002060060160009054906101000a900473ffffffffffffffffffffffffffffffffffffffff1673ffffffffffffffffffffffffffffffffffffffff16036108bb576040517f08c379a00000000000000000000000000000000000000000000000000000000081526004016108b29061559d565b60405180910390fd5b6000808a73ffffffffffffffffffffffffffffffffffffffff1673ffffffffffffffffffffffffffffffffffffffff1681526020019081526020016000206000016000808b73ffffffffffffffffffffffffffffffffffffffff1673ffffffffffffffffffffffffffffffffffffffff1681526020019081526020016000206001016000808c73ffffffffffffffffffffffffffffffffffffffff1673ffffffffffffffffffffffffffffffffffffffff1681526020019081526020016000206002016000808d73ffffffffffffffffffffffffffffffffffffffff1673ffffffffffffffffffffffffffffffffffffffff16815260200190815260200160002060060160009054906101000a900473ffffffffffffffffffffffffffffffffffffffff166000808e73ffffffffffffffffffffffffffffffffffffffff1673ffffffffffffffffffffffffffffffffffffffff168152602001908152602001600020600401546000808f73ffffffffffffffffffffffffffffffffffffffff1673ffffffffffffffffffffffffffffffffffffffff168152602001908152602001600020600301858054610a6f906155ec565b80601f0160208091040260200160405190810160405280929190818152602001828054610a9b906155ec565b8015610ae85780601f10610abd57610100808354040283529160200191610ae8565b820191906000526020600020905b815481529060010190602001808311610acb57829003601f168201915b50505050509550848054610afb906155ec565b80601f0160208091040260200160405190810160405280929190818152602001828054610b27906155ec565b8015610b745780601f10610b4957610100808354040283529160200191610b74565b820191906000526020600020905b815481529060010190602001808311610b5757829003601f168201915b50505050509450838054610b87906155ec565b80601f0160208091040260200160405190810160405280929190818152602001828054610bb3906155ec565b8015610c005780601f10610bd557610100808354040283529160200191610c00565b820191906000526020600020905b815481529060010190602001808311610be357829003601f168201915b50505050509350808054610c13906155ec565b80601f0160208091040260200160405190810160405280929190818152602001828054610c3f906155ec565b8015610c8c5780601f10610c6157610100808354040283529160200191610c8c565b820191906000526020600020905b815481529060010190602001808311610c6f57829003601f168201915b50505050509050975097509750975097509750505091939550919395565b60008060009050600060056000858152602001908152602001600020600a01805480602002602001604051908101604052809291908181526020018280548015610d1357602002820191906000526020600020905b815481526020019060010190808311610cff575b5050505050905060008151905060005b81811015610d6657828181518110610d3e57610d3d61561d565b5b602002602001015184610d51919061567b565b93508080610d5e906156d1565b915050610d23565b50829350505050919050565b808073ffffffffffffffffffffffffffffffffffffffff163373ffffffffffffffffffffffffffffffffffffffff1614610de1576040517f08c379a0000000000000000000000000000000000000000000000000000000008152600401610dd890615531565b60405180910390fd5b600073ffffffffffffffffffffffffffffffffffffffff166000808473ffffffffffffffffffffffffffffffffffffffff1673ffffffffffffffffffffffffffffffffffffffff16815260200190815260200160002060060160009054906101000a900473ffffffffffffffffffffffffffffffffffffffff1673ffffffffffffffffffffffffffffffffffffffff1614610eb1576040517f08c379a0000000000000000000000000000000000000000000000000000000008152600401610ea890615765565b60405180910390fd5b60008060008473ffffffffffffffffffffffffffffffffffffffff1673ffffffffffffffffffffffffffffffffffffffff168152602001908152602001600020905086816000019080519060200190610f0b929190613e6a565b5085816001019080519060200190610f24929190613e6a565b5084816002019080519060200190610f3d929190613e6a565b5083816003019080519060200190610f56929190613e6a565b5060008160040181905550428160050181905550828160060160006101000a81548173ffffffffffffffffffffffffffffffffffffffff021916908373ffffffffffffffffffffffffffffffffffffffff160217905550600067ffffffffffffffff811115610fc857610fc76142f6565b5b604051908082528060200260200182016040528015610ff65781602001602082028036833780820191505090505b5081600701908051906020019061100e929190613ef0565b506001839080600181540180825580915050600190039060005260206000200160009091909190916101000a81548173ffffffffffffffffffffffffffffffffffffffff021916908373ffffffffffffffffffffffffffffffffffffffff16021790555050505050505050565b606060008060008473ffffffffffffffffffffffffffffffffffffffff1673ffffffffffffffffffffffffffffffffffffffff1681526020019081526020016000206007018054905011611104576040517f08c379a00000000000000000000000000000000000000000000000000000000081526004016110fb906157d1565b60405180910390fd5b60008060008473ffffffffffffffffffffffffffffffffffffffff1673ffffffffffffffffffffffffffffffffffffffff16815260200190815260200160002060070180548060200260200160405190810160405280929190818152602001828054801561119157602002820191906000526020600020905b81548152602001906001019080831161117d575b505050505090506000815167ffffffffffffffff8111156111b5576111b46142f6565b5b6040519080825280602002602001820160405280156111ee57816020015b6111db613f3d565b8152602001906001900390816111d35790505b50905060005b825181101561161357600560008483815181106112145761121361561d565b5b60200260200101518152602001908152602001600020604051806101c0016040529081600082018054611246906155ec565b80601f0160208091040260200160405190810160405280929190818152602001828054611272906155ec565b80156112bf5780601f10611294576101008083540402835291602001916112bf565b820191906000526020600020905b8154815290600101906020018083116112a257829003601f168201915b505050505081526020016001820180546112d8906155ec565b80601f0160208091040260200160405190810160405280929190818152602001828054611304906155ec565b80156113515780601f1061132657610100808354040283529160200191611351565b820191906000526020600020905b81548152906001019060200180831161133457829003601f168201915b50505050508152602001600282015481526020016003820160009054906101000a900473ffffffffffffffffffffffffffffffffffffffff1673ffffffffffffffffffffffffffffffffffffffff1673ffffffffffffffffffffffffffffffffffffffff1681526020016003820160149054906101000a900460ff1660048111156113df576113de6145a0565b5b60048111156113f1576113f06145a0565b5b815260200160048201548152602001600582015481526020016006820154815260200160078201548152602001600882018054806020026020016040519081016040528092919081815260200182805480156114a257602002820191906000526020600020905b8160009054906101000a900473ffffffffffffffffffffffffffffffffffffffff1673ffffffffffffffffffffffffffffffffffffffff1681526020019060010190808311611458575b505050505081526020016009820180548060200260200160405190810160405280929190818152602001828054801561151f57602002820191906000526020600020906000905b82829054906101000a900460ff161515815260200190600101906020826000010492830192600103820291508084116114e95790505b50505050508152602001600a820180548060200260200160405190810160405280929190818152602001828054801561157757602002820191906000526020600020905b815481526020019060010190808311611563575b50505050508152602001600b82018054806020026020016040519081016040528092919081815260200182805480156115cf57602002820191906000526020600020905b8154815260200190600101908083116115bb575b50505050508152602001600c820154815250508282815181106115f5576115f461561d565b5b6020026020010181905250808061160b906156d1565b9150506111f4565b508092505050919050565b60006005600083815260200190815260200160002090506116b5816009018054806020026020016040519081016040528092919081815260200182805480156116ab57602002820191906000526020600020906000905b82829054906101000a900460ff161515815260200190600101906020826000010492830192600103820291508084116116755790505b505050505061385a565b156116c6576116c5826001613079565b5b5050565b600060056000838152602001908152602001600020600201549050919050565b600360009054906101000a900473ffffffffffffffffffffffffffffffffffffffff1681565b60006005600083815260200190815260200160002060030160149054906101000a900460ff169050919050565b606060008060065411611785576040517f08c379a000000000000000000000000000000000000000000000000000000000815260040161177c906157d1565b60405180910390fd5b60008060065467ffffffffffffffff8111156117a4576117a36142f6565b5b6040519080825280602002602001820160405280156117dd57816020015b6117ca613f3d565b8152602001906001900390816117c25790505b50905060005b600654811015611c475760016004811115611801576118006145a0565b5b6005600083815260200190815260200160002060030160149054906101000a900460ff166004811115611837576118366145a0565b5b03611c345760056000828152602001908152602001600020604051806101c001604052908160008201805461186b906155ec565b80601f0160208091040260200160405190810160405280929190818152602001828054611897906155ec565b80156118e45780601f106118b9576101008083540402835291602001916118e4565b820191906000526020600020905b8154815290600101906020018083116118c757829003601f168201915b505050505081526020016001820180546118fd906155ec565b80601f0160208091040260200160405190810160405280929190818152602001828054611929906155ec565b80156119765780601f1061194b57610100808354040283529160200191611976565b820191906000526020600020905b81548152906001019060200180831161195957829003601f168201915b50505050508152602001600282015481526020016003820160009054906101000a900473ffffffffffffffffffffffffffffffffffffffff1673ffffffffffffffffffffffffffffffffffffffff1673ffffffffffffffffffffffffffffffffffffffff1681526020016003820160149054906101000a900460ff166004811115611a0457611a036145a0565b5b6004811115611a1657611a156145a0565b5b81526020016004820154815260200160058201548152602001600682015481526020016007820154815260200160088201805480602002602001604051908101604052809291908181526020018280548015611ac757602002820191906000526020600020905b8160009054906101000a900473ffffffffffffffffffffffffffffffffffffffff1673ffffffffffffffffffffffffffffffffffffffff1681526020019060010190808311611a7d575b5050505050815260200160098201805480602002602001604051908101604052809291908181526020018280548015611b4457602002820191906000526020600020906000905b82829054906101000a900460ff16151581526020019060010190602082600001049283019260010382029150808411611b0e5790505b50505050508152602001600a8201805480602002602001604051908101604052809291908181526020018280548015611b9c57602002820191906000526020600020905b815481526020019060010190808311611b88575b50505050508152602001600b8201805480602002602001604051908101604052809291908181526020018280548015611bf457602002820191906000526020600020905b815481526020019060010190808311611be0575b50505050508152602001600c82015481525050828281518110611c1a57611c1961561d565b5b60200260200101819052508280611c30906156d1565b9350505b8080611c3f906156d1565b9150506117e3565b5080829350935050509091565b600060056000838152602001908152602001600020600b01805490509050919050565b606060056000838152602001908152602001600020600b01805480602002602001604051908101604052809291908181526020018280548015611cd957602002820191906000526020600020905b815481526020019060010190808311611cc5575b50505050509050919050565b6005602052806000526040600020600091509050806000018054611d08906155ec565b80601f0160208091040260200160405190810160405280929190818152602001828054611d34906155ec565b8015611d815780601f10611d5657610100808354040283529160200191611d81565b820191906000526020600020905b815481529060010190602001808311611d6457829003601f168201915b505050505090806001018054611d96906155ec565b80601f0160208091040260200160405190810160405280929190818152602001828054611dc2906155ec565b8015611e0f5780601f10611de457610100808354040283529160200191611e0f565b820191906000526020600020905b815481529060010190602001808311611df257829003601f168201915b5050505050908060020154908060030160009054906101000a900473ffffffffffffffffffffffffffffffffffffffff16908060030160149054906101000a900460ff169080600401549080600501549080600601549080600701549080600c015490508a565b606060056000838152602001908152602001600020600801805480602002602001604051908101604052809291908181526020018280548015611f0e57602002820191906000526020600020905b8160009054906101000a900473ffffffffffffffffffffffffffffffffffffffff1673ffffffffffffffffffffffffffffffffffffffff1681526020019060010190808311611ec4575b50505050509050919050565b6000602052806000526040600020600091509050806000018054611f3d906155ec565b80601f0160208091040260200160405190810160405280929190818152602001828054611f69906155ec565b8015611fb65780601f10611f8b57610100808354040283529160200191611fb6565b820191906000526020600020905b815481529060010190602001808311611f9957829003601f168201915b505050505090806001018054611fcb906155ec565b80601f0160208091040260200160405190810160405280929190818152602001828054611ff7906155ec565b80156120445780601f1061201957610100808354040283529160200191612044565b820191906000526020600020905b81548152906001019060200180831161202757829003601f168201915b505050505090806002018054612059906155ec565b80601f0160208091040260200160405190810160405280929190818152602001828054612085906155ec565b80156120d25780601f106120a7576101008083540402835291602001916120d2565b820191906000526020600020905b8154815290600101906020018083116120b557829003601f168201915b5050505050908060030180546120e7906155ec565b80601f0160208091040260200160405190810160405280929190818152602001828054612113906155ec565b80156121605780601f1061213557610100808354040283529160200191612160565b820191906000526020600020905b81548152906001019060200180831161214357829003601f168201915b5050505050908060040154908060050154908060060160009054906101000a900473ffffffffffffffffffffffffffffffffffffffff16908060080154905088565b6121aa613f3d565b6000600560008481526020019081526020016000206002015411612203576040517f08c379a00000000000000000000000000000000000000000000000000000000081526004016121fa90615863565b60405180910390fd5b60056000838152602001908152602001600020604051806101c0016040529081600082018054612232906155ec565b80601f016020809104026020016040519081016040528092919081815260200182805461225e906155ec565b80156122ab5780601f10612280576101008083540402835291602001916122ab565b820191906000526020600020905b81548152906001019060200180831161228e57829003601f168201915b505050505081526020016001820180546122c4906155ec565b80601f01602080910402602001604051908101604052809291908181526020018280546122f0906155ec565b801561233d5780601f106123125761010080835404028352916020019161233d565b820191906000526020600020905b81548152906001019060200180831161232057829003601f168201915b50505050508152602001600282015481526020016003820160009054906101000a900473ffffffffffffffffffffffffffffffffffffffff1673ffffffffffffffffffffffffffffffffffffffff1673ffffffffffffffffffffffffffffffffffffffff1681526020016003820160149054906101000a900460ff1660048111156123cb576123ca6145a0565b5b60048111156123dd576123dc6145a0565b5b8152602001600482015481526020016005820154815260200160068201548152602001600782015481526020016008820180548060200260200160405190810160405280929190818152602001828054801561248e57602002820191906000526020600020905b8160009054906101000a900473ffffffffffffffffffffffffffffffffffffffff1673ffffffffffffffffffffffffffffffffffffffff1681526020019060010190808311612444575b505050505081526020016009820180548060200260200160405190810160405280929190818152602001828054801561250b57602002820191906000526020600020906000905b82829054906101000a900460ff161515815260200190600101906020826000010492830192600103820291508084116124d55790505b50505050508152602001600a820180548060200260200160405190810160405280929190818152602001828054801561256357602002820191906000526020600020905b81548152602001906001019080831161254f575b50505050508152602001600b82018054806020026020016040519081016040528092919081815260200182805480156125bb57602002820191906000526020600020905b8154815260200190600101908083116125a7575b50505050508152602001600c820154815250509050919050565b81818173ffffffffffffffffffffffffffffffffffffffff166005600083815260200190815260200160002060030160009054906101000a900473ffffffffffffffffffffffffffffffffffffffff1673ffffffffffffffffffffffffffffffffffffffff161461267b576040517f08c379a0000000000000000000000000000000000000000000000000000000008152600401612672906158f5565b60405180910390fd5b60008060008673ffffffffffffffffffffffffffffffffffffffff1673ffffffffffffffffffffffffffffffffffffffff1681526020019081526020016000206007018054905011612702576040517f08c379a00000000000000000000000000000000000000000000000000000000081526004016126f9906157d1565b60405180910390fd5b600060056000858152602001908152602001600020600201541161275b576040517f08c379a000000000000000000000000000000000000000000000000000000000815260040161275290615863565b60405180910390fd5b6000600481111561276f5761276e6145a0565b5b6005600085815260200190815260200160002060030160149054906101000a900460ff1660048111156127a5576127a46145a0565b5b146127e5576040517f08c379a00000000000000000000000000000000000000000000000000000000081526004016127dc90615961565b60405180910390fd5b60008060008673ffffffffffffffffffffffffffffffffffffffff1673ffffffffffffffffffffffffffffffffffffffff168152602001908152602001600020600701905060005b81805490508110156129cc578482828154811061284d5761284c61561d565b5b9060005260206000200154036129b95760056000868152602001908152602001600020600080820160006128819190613fd4565b6001820160006128919190613fd4565b60028201600090556003820160006101000a81549073ffffffffffffffffffffffffffffffffffffffff02191690556003820160146101000a81549060ff021916905560048201600090556005820160009055600682016000905560078201600090556008820160006129049190614014565b6009820160006129149190614035565b600a82016000612924919061405d565b600b82016000612934919061405d565b600c820160009055505081600183805490506129509190615981565b815481106129615761296061561d565b5b906000526020600020015482828154811061297f5761297e61561d565b5b90600052602060002001819055508180548061299e5761299d6159b5565b5b600190038181906000526020600020016000905590556129cc565b80806129c4906156d1565b91505061282d565b505050505050565b606060006001805480602002602001604051908101604052809291908181526020018280548015612a5a57602002820191906000526020600020905b8160009054906101000a900473ffffffffffffffffffffffffffffffffffffffff1673ffffffffffffffffffffffffffffffffffffffff1681526020019060010190808311612a10575b505050505090506000600190505b600180549050811015612c3c5760005b81811015612c2857600080848381518110612a9657612a9561561d565b5b602002602001015173ffffffffffffffffffffffffffffffffffffffff1673ffffffffffffffffffffffffffffffffffffffff16815260200190815260200160002060040154600080858581518110612af257612af161561d565b5b602002602001015173ffffffffffffffffffffffffffffffffffffffff1673ffffffffffffffffffffffffffffffffffffffff168152602001908152602001600020600401541015612c15576000838381518110612b5357612b5261561d565b5b60200260200101519050838281518110612b7057612b6f61561d565b5b6020026020010151848481518110612b8b57612b8a61561d565b5b602002602001019073ffffffffffffffffffffffffffffffffffffffff16908173ffffffffffffffffffffffffffffffffffffffff168152505080848381518110612bd957612bd861561d565b5b602002602001019073ffffffffffffffffffffffffffffffffffffffff16908173ffffffffffffffffffffffffffffffffffffffff1681525050505b8080612c20906156d1565b915050612a78565b508080612c34906156d1565b915050612a68565b508091505090565b6000600654905090565b60008060008373ffffffffffffffffffffffffffffffffffffffff1673ffffffffffffffffffffffffffffffffffffffff168152602001908152602001600020600401549050919050565b808073ffffffffffffffffffffffffffffffffffffffff163373ffffffffffffffffffffffffffffffffffffffff1614612d08576040517f08c379a0000000000000000000000000000000000000000000000000000000008152600401612cff90615531565b60405180910390fd5b81600073ffffffffffffffffffffffffffffffffffffffff166000808373ffffffffffffffffffffffffffffffffffffffff1673ffffffffffffffffffffffffffffffffffffffff16815260200190815260200160002060060160009054906101000a900473ffffffffffffffffffffffffffffffffffffffff1673ffffffffffffffffffffffffffffffffffffffff1603612dd9576040517f08c379a0000000000000000000000000000000000000000000000000000000008152600401612dd09061559d565b60405180910390fd5b60008060008573ffffffffffffffffffffffffffffffffffffffff1673ffffffffffffffffffffffffffffffffffffffff168152602001908152602001600020905085816000019080519060200190612e33929190613e6a565b5084816003019080519060200190612e4c929190613e6a565b50505050505050565b60006005600083815260200190815260200160002060030160009054906101000a900473ffffffffffffffffffffffffffffffffffffffff169050919050565b600060056000838152602001908152602001600020600501549050919050565b8160056000838152602001908152602001600020600b019080519060200190612edf929190613ef0565b5060056000828152602001908152602001600020600b01805480612f0657612f056159b5565b5b600190038181906000526020600020016000905590555050565b60008060056000858152602001908152602001600020905060008160080180549050905060005b81811015612fde573373ffffffffffffffffffffffffffffffffffffffff16836008018281548110612f7c57612f7b61561d565b5b9060005260206000200160009054906101000a900473ffffffffffffffffffffffffffffffffffffffff1673ffffffffffffffffffffffffffffffffffffffff1603612fcb5760019350612fde565b8080612fd6906156d1565b915050612f47565b50821561303757831561303257816009018490806001815401808255809150506001900390600052602060002090602091828204019190069091909190916101000a81548160ff0219169083151502179055505b613072565b6040517f08c379a000000000000000000000000000000000000000000000000000000000815260040161306990615a56565b60405180910390fd5b5050505050565b6000600560008481526020019081526020016000209050818160030160146101000a81548160ff021916908360048111156130b7576130b66145a0565b5b0217905550505050565b858073ffffffffffffffffffffffffffffffffffffffff163373ffffffffffffffffffffffffffffffffffffffff1614613130576040517f08c379a000000000000000000000000000000000000000000000000000000000815260040161312790615531565b60405180910390fd5b60028661313d9190615aa5565b8773ffffffffffffffffffffffffffffffffffffffff16311015613196576040517f08c379a000000000000000000000000000000000000000000000000000000000815260040161318d90615b48565b60405180910390fd5b60006005600060065481526020019081526020016000209050858160000190805190602001906131c7929190613e6a565b50848160010190805190602001906131e0929190613e6a565b5086816002018190555060008160030160146101000a81548160ff02191690836004811115613212576132116145a0565b5b0217905550428160040181905550838160050181905550878160030160006101000a81548173ffffffffffffffffffffffffffffffffffffffff021916908373ffffffffffffffffffffffffffffffffffffffff1602179055506006548160070181905550828160060181905550600061328a6129d4565b90506000815190506000600a82106132a357600a6132a5565b815b91505b818110156134ba576000803373ffffffffffffffffffffffffffffffffffffffff1673ffffffffffffffffffffffffffffffffffffffff16815260200190815260200160002060060160009054906101000a900473ffffffffffffffffffffffffffffffffffffffff1673ffffffffffffffffffffffffffffffffffffffff1683600183856133379190615981565b6133419190615981565b815181106133525761335161561d565b5b602002602001015173ffffffffffffffffffffffffffffffffffffffff16146134b5578360080183600183856133889190615981565b6133929190615981565b815181106133a3576133a261561d565b5b60200260200101519080600181540180825580915050600190039060005260206000200160009091909190916101000a81548173ffffffffffffffffffffffffffffffffffffffff021916908373ffffffffffffffffffffffffffffffffffffffff160217905550600080846001848661341d9190615981565b6134279190615981565b815181106134385761343761561d565b5b602002602001015173ffffffffffffffffffffffffffffffffffffffff1673ffffffffffffffffffffffffffffffffffffffff168152602001908152602001600020600901600654908060018154018082558091505060019003906000526020600020016000909190919091505580806134b1906156d1565b9150505b6132a8565b6000808c73ffffffffffffffffffffffffffffffffffffffff1673ffffffffffffffffffffffffffffffffffffffff168152602001908152602001600020600701600654908060018154018082558091505060019003906000526020600020016000909190919091505560066000815480929190613537906156d1565b91905055505050505050505050505050565b86868173ffffffffffffffffffffffffffffffffffffffff166005600083815260200190815260200160002060030160009054906101000a900473ffffffffffffffffffffffffffffffffffffffff1673ffffffffffffffffffffffffffffffffffffffff16146135ef576040517f08c379a00000000000000000000000000000000000000000000000000000000081526004016135e6906158f5565b60405180910390fd5b60008060008b73ffffffffffffffffffffffffffffffffffffffff1673ffffffffffffffffffffffffffffffffffffffff1681526020019081526020016000206007018054905011613676576040517f08c379a000000000000000000000000000000000000000000000000000000000815260040161366d906157d1565b60405180910390fd5b6000600560008a815260200190815260200160002060020154116136cf576040517f08c379a00000000000000000000000000000000000000000000000000000000081526004016136c690615863565b60405180910390fd5b600060048111156136e3576136e26145a0565b5b600560008a815260200190815260200160002060030160149054906101000a900460ff166004811115613719576137186145a0565b5b148061376c575060036004811115613734576137336145a0565b5b600560008a815260200190815260200160002060030160149054906101000a900460ff16600481111561376a576137696145a0565b5b145b6137ab576040517f08c379a00000000000000000000000000000000000000000000000000000000081526004016137a290615bb4565b60405180910390fd5b6000600560008a81526020019081526020016000209050878160020181905550868160000190805190602001906137e3929190613e6a565b50858160010190805190602001906137fc929190613e6a565b5084816005018190555083816006018190555050505050505050505050565b6001818154811061382b57600080fd5b906000526020600020016000915054906101000a900473ffffffffffffffffffffffffffffffffffffffff1681565b6000806000905060008351905060005b818110156138b4578481815181106138855761388461561d565b5b6020026020010151156138a157828061389d906156d1565b9350505b80806138ac906156d1565b91505061386a565b506002816138c29190615aa5565b8211156138d4576001925050506138db565b6000925050505b919050565b600060056000838152602001908152602001600020600601549050919050565b808073ffffffffffffffffffffffffffffffffffffffff163373ffffffffffffffffffffffffffffffffffffffff161461396f576040517f08c379a000000000000000000000000000000000000000000000000000000000815260040161396690615531565b60405180910390fd5b81600073ffffffffffffffffffffffffffffffffffffffff166000808373ffffffffffffffffffffffffffffffffffffffff1673ffffffffffffffffffffffffffffffffffffffff16815260200190815260200160002060060160009054906101000a900473ffffffffffffffffffffffffffffffffffffffff1673ffffffffffffffffffffffffffffffffffffffff1603613a40576040517f08c379a0000000000000000000000000000000000000000000000000000000008152600401613a379061559d565b60405180910390fd5b6000808473ffffffffffffffffffffffffffffffffffffffff1673ffffffffffffffffffffffffffffffffffffffff16815260200190815260200160002060008082016000613a8f9190613fd4565b600182016000613a9f9190613fd4565b600282016000613aaf9190613fd4565b600382016000613abf9190613fd4565b600482016000905560058201600090556006820160006101000a81549073ffffffffffffffffffffffffffffffffffffffff0219169055600782016000613b06919061405d565b6008820160009055600982016000613b1e919061405d565b505060005b600180549050811015613caa573373ffffffffffffffffffffffffffffffffffffffff1660018281548110613b5b57613b5a61561d565b5b9060005260206000200160009054906101000a900473ffffffffffffffffffffffffffffffffffffffff1673ffffffffffffffffffffffffffffffffffffffff1603613c97576001808080549050613bb39190615981565b81548110613bc457613bc361561d565b5b9060005260206000200160009054906101000a900473ffffffffffffffffffffffffffffffffffffffff1660018281548110613c0357613c0261561d565b5b9060005260206000200160006101000a81548173ffffffffffffffffffffffffffffffffffffffff021916908373ffffffffffffffffffffffffffffffffffffffff1602179055506001805480613c5d57613c5c6159b5565b5b6001900381819060005260206000200160006101000a81549073ffffffffffffffffffffffffffffffffffffffff02191690559055613caa565b8080613ca2906156d1565b915050613b23565b50505050565b60056000838152602001908152602001600020600b018190806001815401808255809150506001900390600052602060002001600090919091909150555050565b600260009054906101000a900473ffffffffffffffffffffffffffffffffffffffff1681565b6060818073ffffffffffffffffffffffffffffffffffffffff163373ffffffffffffffffffffffffffffffffffffffff1614613d88576040517f08c379a0000000000000000000000000000000000000000000000000000000008152600401613d7f90615531565b60405180910390fd5b6000808473ffffffffffffffffffffffffffffffffffffffff1673ffffffffffffffffffffffffffffffffffffffff168152602001908152602001600020600901805480602002602001604051908101604052809291908181526020018280548015613e1357602002820191906000526020600020905b815481526020019060010190808311613dff575b5050505050915050919050565b806000808473ffffffffffffffffffffffffffffffffffffffff1673ffffffffffffffffffffffffffffffffffffffff168152602001908152602001600020600401819055505050565b828054613e76906155ec565b90600052602060002090601f016020900481019282613e985760008555613edf565b82601f10613eb157805160ff1916838001178555613edf565b82800160010185558215613edf579182015b82811115613ede578251825591602001919060010190613ec3565b5b509050613eec919061407e565b5090565b828054828255906000526020600020908101928215613f2c579160200282015b82811115613f2b578251825591602001919060010190613f10565b5b509050613f39919061407e565b5090565b604051806101c00160405280606081526020016060815260200160008152602001600073ffffffffffffffffffffffffffffffffffffffff16815260200160006004811115613f8f57613f8e6145a0565b5b81526020016000815260200160008152602001600081526020016000815260200160608152602001606081526020016060815260200160608152602001600081525090565b508054613fe0906155ec565b6000825580601f10613ff25750614011565b601f016020900490600052602060002090810190614010919061407e565b5b50565b5080546000825590600052602060002090810190614032919061407e565b50565b50805460008255601f01602090049060005260206000209081019061405a919061407e565b50565b508054600082559060005260206000209081019061407b919061407e565b50565b5b8082111561409757600081600090555060010161407f565b5090565b6000604051905090565b600080fd5b600080fd5b600073ffffffffffffffffffffffffffffffffffffffff82169050919050565b60006140da826140af565b9050919050565b6140ea816140cf565b81146140f557600080fd5b50565b600081359050614107816140e1565b92915050565b600060208284031215614123576141226140a5565b5b6000614131848285016140f8565b91505092915050565b600081519050919050565b600082825260208201905092915050565b60005b83811015614174578082015181840152602081019050614159565b83811115614183576000848401525b50505050565b6000601f19601f8301169050919050565b60006141a58261413a565b6141af8185614145565b93506141bf818560208601614156565b6141c881614189565b840191505092915050565b6141dc816140cf565b82525050565b6000819050919050565b6141f5816141e2565b82525050565b600060c0820190508181036000830152614215818961419a565b90508181036020830152614229818861419a565b9050818103604083015261423d818761419a565b905061424c60608301866141d3565b61425960808301856141ec565b81810360a083015261426b818461419a565b9050979650505050505050565b614281816141e2565b811461428c57600080fd5b50565b60008135905061429e81614278565b92915050565b6000602082840312156142ba576142b96140a5565b5b60006142c88482850161428f565b91505092915050565b60006020820190506142e660008301846141ec565b92915050565b600080fd5b600080fd5b7f4e487b7100000000000000000000000000000000000000000000000000000000600052604160045260246000fd5b61432e82614189565b810181811067ffffffffffffffff8211171561434d5761434c6142f6565b5b80604052505050565b600061436061409b565b905061436c8282614325565b919050565b600067ffffffffffffffff82111561438c5761438b6142f6565b5b61439582614189565b9050602081019050919050565b82818337600083830152505050565b60006143c46143bf84614371565b614356565b9050828152602081018484840111156143e0576143df6142f1565b5b6143eb8482856143a2565b509392505050565b600082601f830112614408576144076142ec565b5b81356144188482602086016143b1565b91505092915050565b600080600080600060a0868803121561443d5761443c6140a5565b5b600086013567ffffffffffffffff81111561445b5761445a6140aa565b5b614467888289016143f3565b955050602086013567ffffffffffffffff811115614488576144876140aa565b5b614494888289016143f3565b945050604086013567ffffffffffffffff8111156144b5576144b46140aa565b5b6144c1888289016143f3565b935050606086013567ffffffffffffffff8111156144e2576144e16140aa565b5b6144ee888289016143f3565b92505060806144ff888289016140f8565b9150509295509295909350565b600081519050919050565b600082825260208201905092915050565b6000819050602082019050919050565b600082825260208201905092915050565b60006145548261413a565b61455e8185614538565b935061456e818560208601614156565b61457781614189565b840191505092915050565b61458b816141e2565b82525050565b61459a816140cf565b82525050565b7f4e487b7100000000000000000000000000000000000000000000000000000000600052602160045260246000fd5b600581106145e0576145df6145a0565b5b50565b60008190506145f1826145cf565b919050565b6000614601826145e3565b9050919050565b614611816145f6565b82525050565b600081519050919050565b600082825260208201905092915050565b6000819050602082019050919050565b600061464f8383614591565b60208301905092915050565b6000602082019050919050565b600061467382614617565b61467d8185614622565b935061468883614633565b8060005b838110156146b95781516146a08882614643565b97506146ab8361465b565b92505060018101905061468c565b5085935050505092915050565b600081519050919050565b600082825260208201905092915050565b6000819050602082019050919050565b60008115159050919050565b614707816146f2565b82525050565b600061471983836146fe565b60208301905092915050565b6000602082019050919050565b600061473d826146c6565b61474781856146d1565b9350614752836146e2565b8060005b8381101561478357815161476a888261470d565b975061477583614725565b925050600181019050614756565b5085935050505092915050565b600081519050919050565b600082825260208201905092915050565b6000819050602082019050919050565b60006147c88383614582565b60208301905092915050565b6000602082019050919050565b60006147ec82614790565b6147f6818561479b565b9350614801836147ac565b8060005b8381101561483257815161481988826147bc565b9750614824836147d4565b925050600181019050614805565b5085935050505092915050565b60006101c083016000830151848203600086015261485d8282614549565b915050602083015184820360208601526148778282614549565b915050604083015161488c6040860182614582565b50606083015161489f6060860182614591565b5060808301516148b26080860182614608565b5060a08301516148c560a0860182614582565b5060c08301516148d860c0860182614582565b5060e08301516148eb60e0860182614582565b50610100830151614900610100860182614582565b5061012083015184820361012086015261491a8282614668565b9150506101408301518482036101408601526149368282614732565b91505061016083015184820361016086015261495282826147e1565b91505061018083015184820361018086015261496e82826147e1565b9150506101a08301516149856101a0860182614582565b508091505092915050565b600061499c838361483f565b905092915050565b6000602082019050919050565b60006149bc8261450c565b6149c68185614517565b9350836020820285016149d885614528565b8060005b85811015614a1457848403895281516149f58582614990565b9450614a00836149a4565b925060208a019950506001810190506149dc565b50829750879550505050505092915050565b60006020820190508181036000830152614a4081846149b1565b905092915050565b6000819050919050565b6000614a6d614a68614a63846140af565b614a48565b6140af565b9050919050565b6000614a7f82614a52565b9050919050565b6000614a9182614a74565b9050919050565b614aa181614a86565b82525050565b6000602082019050614abc6000830184614a98565b92915050565b614acb816145f6565b82525050565b6000602082019050614ae66000830184614ac2565b92915050565b60006040820190508181036000830152614b0681856149b1565b9050614b1560208301846141ec565b9392505050565b600082825260208201905092915050565b6000614b3882614790565b614b428185614b1c565b9350614b4d836147ac565b8060005b83811015614b7e578151614b6588826147bc565b9750614b70836147d4565b925050600181019050614b51565b5085935050505092915050565b60006020820190508181036000830152614ba58184614b2d565b905092915050565b6000610140820190508181036000830152614bc8818d61419a565b90508181036020830152614bdc818c61419a565b9050614beb604083018b6141ec565b614bf8606083018a6141d3565b614c056080830189614ac2565b614c1260a08301886141ec565b614c1f60c08301876141ec565b614c2c60e08301866141ec565b614c3a6101008301856141ec565b614c486101208301846141ec565b9b9a5050505050505050505050565b600082825260208201905092915050565b6000614c7382614617565b614c7d8185614c57565b9350614c8883614633565b8060005b83811015614cb9578151614ca08882614643565b9750614cab8361465b565b925050600181019050614c8c565b5085935050505092915050565b60006020820190508181036000830152614ce08184614c68565b905092915050565b6000610100820190508181036000830152614d03818b61419a565b90508181036020830152614d17818a61419a565b90508181036040830152614d2b818961419a565b90508181036060830152614d3f818861419a565b9050614d4e60808301876141ec565b614d5b60a08301866141ec565b614d6860c08301856141d3565b614d7560e08301846141ec565b9998505050505050505050565b60006101c0830160008301518482036000860152614da08282614549565b91505060208301518482036020860152614dba8282614549565b9150506040830151614dcf6040860182614582565b506060830151614de26060860182614591565b506080830151614df56080860182614608565b5060a0830151614e0860a0860182614582565b5060c0830151614e1b60c0860182614582565b5060e0830151614e2e60e0860182614582565b50610100830151614e43610100860182614582565b50610120830151848203610120860152614e5d8282614668565b915050610140830151848203610140860152614e798282614732565b915050610160830151848203610160860152614e9582826147e1565b915050610180830151848203610180860152614eb182826147e1565b9150506101a0830151614ec86101a0860182614582565b508091505092915050565b60006020820190508181036000830152614eed8184614d82565b905092915050565b60008060408385031215614f0c57614f0b6140a5565b5b6000614f1a858286016140f8565b9250506020614f2b8582860161428f565b9150509250929050565b600080600060608486031215614f4e57614f4d6140a5565b5b600084013567ffffffffffffffff811115614f6c57614f6b6140aa565b5b614f78868287016143f3565b935050602084013567ffffffffffffffff811115614f9957614f986140aa565b5b614fa5868287016143f3565b9250506040614fb6868287016140f8565b9150509250925092565b6000602082019050614fd560008301846141d3565b92915050565b600067ffffffffffffffff821115614ff657614ff56142f6565b5b602082029050602081019050919050565b600080fd5b600061501f61501a84614fdb565b614356565b9050808382526020820190506020840283018581111561504257615041615007565b5b835b8181101561506b5780615057888261428f565b845260208401935050602081019050615044565b5050509392505050565b600082601f83011261508a576150896142ec565b5b813561509a84826020860161500c565b91505092915050565b600080604083850312156150ba576150b96140a5565b5b600083013567ffffffffffffffff8111156150d8576150d76140aa565b5b6150e485828601615075565b92505060206150f58582860161428f565b9150509250929050565b615108816146f2565b811461511357600080fd5b50565b600081359050615125816150ff565b92915050565b60008060408385031215615142576151416140a5565b5b60006151508582860161428f565b925050602061516185828601615116565b9150509250929050565b6005811061517857600080fd5b50565b60008135905061518a8161516b565b92915050565b600080604083850312156151a7576151a66140a5565b5b60006151b58582860161428f565b92505060206151c68582860161517b565b9150509250929050565b60008060008060008060c087890312156151ed576151ec6140a5565b5b60006151fb89828a016140f8565b965050602061520c89828a0161428f565b955050604087013567ffffffffffffffff81111561522d5761522c6140aa565b5b61523989828a016143f3565b945050606087013567ffffffffffffffff81111561525a576152596140aa565b5b61526689828a016143f3565b935050608061527789828a0161428f565b92505060a061528889828a0161428f565b9150509295509295509295565b600080600080600080600060e0888a0312156152b4576152b36140a5565b5b60006152c28a828b016140f8565b97505060206152d38a828b0161428f565b96505060406152e48a828b0161428f565b955050606088013567ffffffffffffffff811115615305576153046140aa565b5b6153118a828b016143f3565b945050608088013567ffffffffffffffff811115615332576153316140aa565b5b61533e8a828b016143f3565b93505060a061534f8a828b0161428f565b92505060c06153608a828b0161428f565b91505092959891949750929550565b600067ffffffffffffffff82111561538a576153896142f6565b5b602082029050602081019050919050565b60006153ae6153a98461536f565b614356565b905080838252602082019050602084028301858111156153d1576153d0615007565b5b835b818110156153fa57806153e68882615116565b8452602084019350506020810190506153d3565b5050509392505050565b600082601f830112615419576154186142ec565b5b813561542984826020860161539b565b91505092915050565b600060208284031215615448576154476140a5565b5b600082013567ffffffffffffffff811115615466576154656140aa565b5b61547284828501615404565b91505092915050565b615484816146f2565b82525050565b600060208201905061549f600083018461547b565b92915050565b600080604083850312156154bc576154bb6140a5565b5b60006154ca8582860161428f565b92505060206154db8582860161428f565b9150509250929050565b7f43616c6c6572206973206e6f74206f776e657200000000000000000000000000600082015250565b600061551b601383614145565b9150615526826154e5565b602082019050919050565b6000602082019050818103600083015261554a8161550e565b9050919050565b7f506172747920646f6573206e6f74206578697374000000000000000000000000600082015250565b6000615587601483614145565b915061559282615551565b602082019050919050565b600060208201905081810360008301526155b68161557a565b9050919050565b7f4e487b7100000000000000000000000000000000000000000000000000000000600052602260045260246000fd5b6000600282049050600182168061560457607f821691505b602082108103615617576156166155bd565b5b50919050565b7f4e487b7100000000000000000000000000000000000000000000000000000000600052603260045260246000fd5b7f4e487b7100000000000000000000000000000000000000000000000000000000600052601160045260246000fd5b6000615686826141e2565b9150615691836141e2565b9250827fffffffffffffffffffffffffffffffffffffffffffffffffffffffffffffffff038211156156c6576156c561564c565b5b828201905092915050565b60006156dc826141e2565b91507fffffffffffffffffffffffffffffffffffffffffffffffffffffffffffffffff820361570e5761570d61564c565b5b600182019050919050565b7f506172747920616c726561647920657869737473000000000000000000000000600082015250565b600061574f601483614145565b915061575a82615719565b602082019050919050565b6000602082019050818103600083015261577e81615742565b9050919050565b7f4e6f2074656e6465727320657869737473000000000000000000000000000000600082015250565b60006157bb601183614145565b91506157c682615785565b602082019050919050565b600060208201905081810360008301526157ea816157ae565b9050919050565b7f74656e6465722077697468206164647265737320646f65736e2774206578697360008201527f7473000000000000000000000000000000000000000000000000000000000000602082015250565b600061584d602283614145565b9150615858826157f1565b604082019050919050565b6000602082019050818103600083015261587c81615840565b9050919050565b7f796f75277265206e6f7420617574686f72697a656420746f20706572666f726d60008201527f207468697320616374696f6e0000000000000000000000000000000000000000602082015250565b60006158df602c83614145565b91506158ea82615883565b604082019050919050565b6000602082019050818103600083015261590e816158d2565b9050919050565b7f74656e6465722063616e6e6f742062652064656c657465640000000000000000600082015250565b600061594b601883614145565b915061595682615915565b602082019050919050565b6000602082019050818103600083015261597a8161593e565b9050919050565b600061598c826141e2565b9150615997836141e2565b9250828210156159aa576159a961564c565b5b828203905092915050565b7f4e487b7100000000000000000000000000000000000000000000000000000000600052603160045260246000fd5b7f596f75277265206e6f7420617574686f72697a656420746f2076616c6964617460008201527f6520746869732074656e6465722e000000000000000000000000000000000000602082015250565b6000615a40602e83614145565b9150615a4b826159e4565b604082019050919050565b60006020820190508181036000830152615a6f81615a33565b9050919050565b7f4e487b7100000000000000000000000000000000000000000000000000000000600052601260045260246000fd5b6000615ab0826141e2565b9150615abb836141e2565b925082615acb57615aca615a76565b5b828204905092915050565b7f696e73756666696369656e742066756e647320746f206372656174652061207460008201527f656e646572000000000000000000000000000000000000000000000000000000602082015250565b6000615b32602583614145565b9150615b3d82615ad6565b604082019050919050565b60006020820190508181036000830152615b6181615b25565b9050919050565b7f74656e6465722063616e6e6f7420626520757064617465640000000000000000600082015250565b6000615b9e601883614145565b9150615ba982615b68565b602082019050919050565b60006020820190508181036000830152615bcd81615b91565b905091905056fea2646970667358221220af62c341116ce0c638dfbc30a5bac3fa7ecf87adfb32183a5a7aee7e7427b12564736f6c634300080d0033",
  "immutableReferences": {},
  "source": "// SPDX-License-Identifier: UNLICENSED\n\n//the version of solidity that is compatible\nimport \"./PartyContract.sol\";\nenum TenderStatus{ NEW, OPEN, CLOSED, SUSPENDED, ASSIGNED } //created---OPEN, deadline crosses---CLOSED, project is assigned ---- ASSIGNED\nimport \"./Token.sol\";\n\npragma solidity ^0.8.0;\ncontract TenderContract is PartyContract {\n    // Tender Structure\n    struct Tender {\n        string title;\n        string description;\n        uint256 budget;\n        address issuerAddress;\n        TenderStatus tenderStatus; \n        uint256 createdAt;\n        uint256 deadline;\n        uint256 totalMilestones;\n        uint256 tenderId;\n        address[] validatorsAddresses;\n        bool[] validationVotes;\n        uint256[] milestoneTimePeriods;\n        uint256[] bidIds;\n        uint256 balance;\n    }\n\n    // Token public tokenRef;\n\n    constructor() PartyContract(){\n        // tokenRef = _tokenRef;\n    }\n\n    mapping (uint256 => Tender) public tenders;\n    uint256 tenderCount = 0;\n\n    //setters and getter functions\n    function getTenderCount() public view returns(uint256){\n        return tenderCount;\n    }\n    \n    function getValidators(uint256 _tenderId) public view returns(address[] memory) {\n        return tenders[_tenderId].validatorsAddresses;\n    }\n    \n    function getTotalProjectDays(uint256 _tenderId) public view returns(uint256) {\n        uint256 sum = 0;\n        uint256[] memory milestoneTimePeriods = tenders[_tenderId].milestoneTimePeriods;\n        uint256 len = milestoneTimePeriods.length;\n        for(uint256 i=0; i < len; i++) {\n            sum += milestoneTimePeriods[i];\n        }\n        return sum;\n    }\n\n    function getBudget(uint256 _tenderId) public view returns(uint256){\n        return tenders[_tenderId].budget;\n    }\n\n    function getTenderStatus(uint256 _tenderId) public view returns(TenderStatus){\n        return tenders[_tenderId].tenderStatus;\n    }\n\n    function getDeadline(uint256 _tenderId) public view returns(uint256){\n            return tenders[_tenderId].deadline;\n    }\n\n    function getBidIds(uint256 _tenderId) public view returns(uint256[] memory){\n        return tenders[_tenderId].bidIds;\n    }\n\n    function getIssuerAddress(uint256 _tenderId) public view returns(address){\n        return tenders[_tenderId].issuerAddress;\n    }\n\n    function getTotalMilestones(uint256 _tenderId) public view returns(uint256){\n            return tenders[_tenderId].totalMilestones;\n    }\n\n    function getBidsCount(uint256 _tenderId) public view returns(uint256){\n            return tenders[_tenderId].bidIds.length;\n    }\n\n    function addBidId(uint256 _tenderId, uint256 bidId) public {\n        tenders[_tenderId].bidIds.push(bidId);\n    }\n\n    function setBidIds(uint256[] memory _tenderBidIds, uint256 _tenderId) public{\n        tenders[_tenderId].bidIds = _tenderBidIds;\n        tenders[_tenderId].bidIds.pop();\n    }\n\n    // Function for creating a tender\n    function createTender(address _partyAddress, uint256 _budget, string memory _title, string memory _description, uint256 _deadline, uint256 _totalMilestones) isOwner(_partyAddress) public {\n        require(_partyAddress.balance >= _budget/2, \"insufficient funds to create a tender\");\n        Tender storage newTender = tenders[tenderCount];\n        newTender.title = _title;\n        newTender.description = _description;\n        newTender.budget = _budget;\n        newTender.tenderStatus = TenderStatus.NEW;\n        newTender.createdAt = block.timestamp;\n        newTender.deadline = _deadline;\n        newTender.issuerAddress = _partyAddress;\n        newTender.tenderId = tenderCount;\n        newTender.totalMilestones = _totalMilestones;\n        //Sort all the parties by their trust scores\n        address[] memory sortedlist = sortByTrustScore();\n        uint len = sortedlist.length;\n        uint count = 0;\n        //If there are less than 10 parties then set number to parties to len\n        len = (len < 10)?len:10;\n        //Add the validator addresses to validatorsAddresses array, also add tenderId to tenderIdsToValidate array\n        while(count < len)\n        {\n            if(sortedlist[len-count-1] != parties[msg.sender].partyAddress)\n            {\n            newTender.validatorsAddresses.push(sortedlist[len-count-1]);\n            parties[sortedlist[len-count-1]].tenderIdsToValidate.push(tenderCount);\n            count ++;\n            }\n        }\n        parties[_partyAddress].tenderIds.push(tenderCount);\n        tenderCount++;\n    }\n\n    //Function to sort all the parties by their trust score\n    function sortByTrustScore() public view returns(address[] memory) {\n    address[] memory _party = partyAddresses;\n    for (uint i = 1; i < partyAddresses.length; i++)\n        for (uint j = 0; j < i; j++)\n            if (parties[_party[i]].trustScore < parties[_party[j]].trustScore) {\n                address x = _party[i];\n                _party[i] = _party[j];\n                _party[j] = x;\n            }\n\n    return _party;\n    }\n    \n    //Function using which validators can validate tenders\n    function validate(uint256 _tenderId, bool _vote) public {\n        bool valid = false;\n        Tender storage newTender = tenders[_tenderId];\n        uint len = newTender.validatorsAddresses.length;\n        for(uint i=0; i<len; i++)\n        {\n            if(newTender.validatorsAddresses[i] == msg.sender)\n            {\n                valid = true;\n                break;\n            }\n        }\n        if(valid)\n        {\n            if(_vote) {\n                newTender.validationVotes.push(_vote); // adds vote only if transaction is successful\n                \n            }\n        }\n        else\n        {\n            revert(\"You're not authorized to validate this tender.\");\n        }\n    }\n    \n    //Check if the tender is ongoing\n    function checkTenderValidation(uint256 _tenderId) public {\n        Tender storage newTender = tenders[_tenderId];\n        if(isValid(newTender.validationVotes)) {\n            updateTenderStatus(_tenderId, TenderStatus.OPEN);\n        }\n    }\n    \n    //Check if a tender is valid or not i.e., it got minimum 6 positive votes\n    function isValid(bool[] memory _validationVotes) public pure returns (bool) {\n        uint voteCount = 0;\n        uint256 totalValidators = _validationVotes.length;\n        for(uint i=0; i<totalValidators; i++)\n        {\n            if(_validationVotes[i])\n            {\n                voteCount++;\n            }\n        }\n\n        if(voteCount > (totalValidators/2))\n        {\n            return true;\n        }\n        return false;\n    }\n\n    function getTendersToValidate(address _partyAddress) public isOwner(_partyAddress) view returns(uint256[] memory){\n        return(parties[_partyAddress].tenderIdsToValidate);\n    }\n\n    function getAllActiveTenders() public view returns (Tender[] memory, uint256){\n        require(tenderCount > 0, \"No tenders exists\");\n        uint256 count=0;\n        Tender[] memory tendersList = new Tender[](tenderCount);\n        for (uint256 i = 0; i < tenderCount; i++) {\n            if(tenders[i].tenderStatus == TenderStatus.OPEN){\n                 tendersList[i] = tenders[i];\n                 count++;\n            }\n        }\n        return(tendersList, count);\n    }\n\n    function getMyTenders(address _partyAddress) public view returns ( Tender[] memory){\n        require(parties[_partyAddress].tenderIds.length > 0, \"No tenders exists\");\n        uint256[] memory partyTenderIds = parties[_partyAddress].tenderIds;\n        Tender[] memory tendersList = new Tender[](partyTenderIds.length);\n        for (uint256 i = 0; i < partyTenderIds.length; i++) {\n            tendersList[i] = tenders[partyTenderIds[i]];\n        }\n        return(tendersList);\n    }\n\n    function getTenderDetails(uint256 _tenderId) public view returns ( Tender memory){\n        require(tenders[_tenderId].budget > 0 , \"tender with address doesn't exists\");\n        return(tenders[_tenderId]);\n    }\n\n    function updateTenderStatus(uint256 _tenderId, TenderStatus _tenderStatus) public {\n        Tender storage updatedTender = tenders[_tenderId];\n        updatedTender.tenderStatus = _tenderStatus;\n    }\n\n    function updateTender(address _partyAddress, uint256 _tenderId, uint256 _budget, string memory _title, string memory _description, uint256 _deadline, uint256 _totalMilestones) public isTenderOwner(_partyAddress, _tenderId){\n        require(parties[_partyAddress].tenderIds.length > 0, \"No tenders exists\");\n        require(tenders[_tenderId].budget > 0 , \"tender with address doesn't exists\");\n        require(tenders[_tenderId].tenderStatus == TenderStatus.NEW ||\n                tenders[_tenderId].tenderStatus == TenderStatus.SUSPENDED , \"tender cannot be updated\");\n        Tender storage updatedTender = tenders[_tenderId];\n        updatedTender.budget = _budget;\n        updatedTender.title = _title;\n        updatedTender.description = _description;\n        updatedTender.deadline = _deadline;\n        updatedTender.totalMilestones = _totalMilestones;\n    }\n\n    function deleteTender(address _partyAddress, uint256 _tenderId) public isTenderOwner(_partyAddress, _tenderId){ \n        require(parties[_partyAddress].tenderIds.length > 0, \"No tenders exists\");\n        require(tenders[_tenderId].budget > 0 , \"tender with address doesn't exists\");\n        require(tenders[_tenderId].tenderStatus == TenderStatus.NEW , \"tender cannot be deleted\");\n        uint256[] storage _tenderIds = parties[_partyAddress].tenderIds;\n        for (uint i = 0; i < _tenderIds.length; i++){\n            if(_tenderIds[i] == _tenderId){\n                delete tenders[_tenderId];\n                _tenderIds[i] = _tenderIds[_tenderIds.length - 1];\n                _tenderIds.pop();\n                break;\n            }\n        }\n    }\n\n    // @todo - add modifer for above functions\n\n    modifier isTenderOwner(address _partyAddress, uint256 _tenderId) {\n        require(tenders[_tenderId].issuerAddress == _partyAddress, \"you're not authorized to perform this action\");\n        _;\n    }\n\n    \n}\n",
  "sourcePath": "/Users/mohammed/Desktop/Naveen/blockchain-based-contracting-system/contracts/TenderContract.sol",
  "compiler": {
    "name": "solc",
    "version": "0.8.13+commit.abaa5c0e.Emscripten.clang"
  },
  "schemaVersion": "3.4.16",
  "updatedAt": "2024-04-01T17:31:15.324Z",
  "networkType": "ethereum",
  "devdoc": {
    "kind": "dev",
    "methods": {},
    "version": 1
  },
  "userdoc": {
    "kind": "user",
    "methods": {},
    "version": 1
  }
}